{
  "contractName": "RenewableEnergyToken",
  "abi": [
    {
      "inputs": [],
      "stateMutability": "nonpayable",
      "type": "constructor"
    },
    {
      "anonymous": false,
      "inputs": [
        {
          "indexed": true,
          "internalType": "address",
          "name": "owner",
          "type": "address"
        },
        {
          "indexed": true,
          "internalType": "address",
          "name": "approved",
          "type": "address"
        },
        {
          "indexed": true,
          "internalType": "uint256",
          "name": "tokenId",
          "type": "uint256"
        }
      ],
      "name": "Approval",
      "type": "event"
    },
    {
      "anonymous": false,
      "inputs": [
        {
          "indexed": true,
          "internalType": "address",
          "name": "owner",
          "type": "address"
        },
        {
          "indexed": true,
          "internalType": "address",
          "name": "operator",
          "type": "address"
        },
        {
          "indexed": false,
          "internalType": "bool",
          "name": "approved",
          "type": "bool"
        }
      ],
      "name": "ApprovalForAll",
      "type": "event"
    },
    {
      "anonymous": false,
      "inputs": [
        {
          "indexed": true,
          "internalType": "address",
          "name": "from",
          "type": "address"
        },
        {
          "indexed": true,
          "internalType": "address",
          "name": "to",
          "type": "address"
        },
        {
          "indexed": true,
          "internalType": "uint256",
          "name": "tokenId",
          "type": "uint256"
        }
      ],
      "name": "Transfer",
      "type": "event"
    },
    {
      "inputs": [
        {
          "internalType": "uint256",
          "name": "",
          "type": "uint256"
        }
      ],
      "name": "assetApprovals",
      "outputs": [
        {
          "internalType": "address",
          "name": "",
          "type": "address"
        }
      ],
      "stateMutability": "view",
      "type": "function"
    },
    {
      "inputs": [
        {
          "internalType": "address",
          "name": "owner",
          "type": "address"
        },
        {
          "internalType": "address",
          "name": "operator",
          "type": "address"
        }
      ],
      "name": "isApprovedForAll",
      "outputs": [
        {
          "internalType": "bool",
          "name": "",
          "type": "bool"
        }
      ],
      "stateMutability": "view",
      "type": "function"
    },
    {
      "inputs": [],
      "name": "name",
      "outputs": [
        {
          "internalType": "string",
          "name": "",
          "type": "string"
        }
      ],
      "stateMutability": "view",
      "type": "function"
    },
    {
      "inputs": [],
      "name": "owner",
      "outputs": [
        {
          "internalType": "address",
          "name": "",
          "type": "address"
        }
      ],
      "stateMutability": "view",
      "type": "function"
    },
    {
      "inputs": [],
      "name": "recCount",
      "outputs": [
        {
          "internalType": "uint256",
          "name": "",
          "type": "uint256"
        }
      ],
      "stateMutability": "view",
      "type": "function"
    },
    {
      "inputs": [
        {
          "internalType": "uint256",
          "name": "",
          "type": "uint256"
        }
      ],
      "name": "recs",
      "outputs": [
        {
          "internalType": "uint256",
          "name": "id",
          "type": "uint256"
        },
        {
          "internalType": "string",
          "name": "name",
          "type": "string"
        },
        {
          "internalType": "uint256",
          "name": "quantity",
          "type": "uint256"
        },
        {
          "internalType": "uint256",
          "name": "price",
          "type": "uint256"
        },
        {
          "internalType": "enum RenewableEnergyToken.Status",
          "name": "status",
          "type": "uint8"
        }
      ],
      "stateMutability": "view",
      "type": "function"
    },
    {
      "inputs": [
        {
          "internalType": "address",
          "name": "from",
          "type": "address"
        },
        {
          "internalType": "address",
          "name": "to",
          "type": "address"
        },
        {
          "internalType": "uint256",
          "name": "tokenId",
          "type": "uint256"
        }
      ],
      "name": "safeTransferFrom",
      "outputs": [],
      "stateMutability": "nonpayable",
      "type": "function"
    },
    {
      "inputs": [
        {
          "internalType": "address",
          "name": "from",
          "type": "address"
        },
        {
          "internalType": "address",
          "name": "to",
          "type": "address"
        },
        {
          "internalType": "uint256",
          "name": "tokenId",
          "type": "uint256"
        },
        {
          "internalType": "bytes",
          "name": "data",
          "type": "bytes"
        }
      ],
      "name": "safeTransferFrom",
      "outputs": [],
      "stateMutability": "nonpayable",
      "type": "function"
    },
    {
      "inputs": [
        {
          "internalType": "address",
          "name": "operator",
          "type": "address"
        },
        {
          "internalType": "bool",
          "name": "approved",
          "type": "bool"
        }
      ],
      "name": "setApprovalForAll",
      "outputs": [],
      "stateMutability": "nonpayable",
      "type": "function"
    },
    {
      "inputs": [
        {
          "internalType": "bytes4",
          "name": "interfaceId",
          "type": "bytes4"
        }
      ],
      "name": "supportsInterface",
      "outputs": [
        {
          "internalType": "bool",
          "name": "",
          "type": "bool"
        }
      ],
      "stateMutability": "view",
      "type": "function"
    },
    {
      "inputs": [],
      "name": "symbol",
      "outputs": [
        {
          "internalType": "string",
          "name": "",
          "type": "string"
        }
      ],
      "stateMutability": "view",
      "type": "function"
    },
    {
      "inputs": [
        {
          "internalType": "uint256",
          "name": "tokenId",
          "type": "uint256"
        }
      ],
      "name": "tokenURI",
      "outputs": [
        {
          "internalType": "string",
          "name": "",
          "type": "string"
        }
      ],
      "stateMutability": "view",
      "type": "function"
    },
    {
      "inputs": [
        {
          "internalType": "address",
          "name": "user",
          "type": "address"
        }
      ],
      "name": "getUserRole",
      "outputs": [
        {
          "internalType": "string",
          "name": "",
          "type": "string"
        }
      ],
      "stateMutability": "view",
      "type": "function"
    },
    {
      "inputs": [
        {
          "internalType": "address",
          "name": "owner",
          "type": "address"
        }
      ],
      "name": "balanceOf",
      "outputs": [
        {
          "internalType": "uint256",
          "name": "",
          "type": "uint256"
        }
      ],
      "stateMutability": "view",
      "type": "function"
    },
    {
      "inputs": [],
      "name": "balanceOf",
      "outputs": [
        {
          "internalType": "uint256",
          "name": "",
          "type": "uint256"
        }
      ],
      "stateMutability": "view",
      "type": "function"
    },
    {
      "inputs": [
        {
          "internalType": "uint256",
          "name": "assetId",
          "type": "uint256"
        }
      ],
      "name": "ownerOf",
      "outputs": [
        {
          "internalType": "address",
          "name": "",
          "type": "address"
        }
      ],
      "stateMutability": "view",
      "type": "function"
    },
    {
      "inputs": [
        {
          "internalType": "uint256",
          "name": "assetId",
          "type": "uint256"
        },
        {
          "internalType": "uint256",
          "name": "value",
          "type": "uint256"
        }
      ],
      "name": "appreciate",
      "outputs": [],
      "stateMutability": "nonpayable",
      "type": "function"
    },
    {
      "inputs": [
        {
          "internalType": "uint256",
          "name": "assetId",
          "type": "uint256"
        },
        {
          "internalType": "uint256",
          "name": "value",
          "type": "uint256"
        }
      ],
      "name": "depreciate",
      "outputs": [],
      "stateMutability": "nonpayable",
      "type": "function"
    },
    {
      "inputs": [
        {
          "internalType": "address payable",
          "name": "from",
          "type": "address"
        },
        {
          "internalType": "uint256",
          "name": "recId",
          "type": "uint256"
        }
      ],
      "name": "transferFrom",
      "outputs": [],
      "stateMutability": "payable",
      "type": "function"
    },
    {
      "inputs": [
        {
          "internalType": "address",
          "name": "from",
          "type": "address"
        },
        {
          "internalType": "address",
          "name": "to",
          "type": "address"
        },
        {
          "internalType": "uint256",
          "name": "tokenId",
          "type": "uint256"
        }
      ],
      "name": "transferFrom",
      "outputs": [],
      "stateMutability": "nonpayable",
      "type": "function"
    },
    {
      "inputs": [
        {
          "internalType": "address",
          "name": "to",
          "type": "address"
        },
        {
          "internalType": "uint256",
          "name": "assetId",
          "type": "uint256"
        }
      ],
      "name": "approve",
      "outputs": [],
      "stateMutability": "nonpayable",
      "type": "function"
    },
    {
      "inputs": [
        {
          "internalType": "uint256",
          "name": "assetId",
          "type": "uint256"
        }
      ],
      "name": "getApproved",
      "outputs": [
        {
          "internalType": "address",
          "name": "",
          "type": "address"
        }
      ],
      "stateMutability": "view",
      "type": "function"
    },
    {
      "inputs": [
        {
          "internalType": "uint256",
          "name": "assetId",
          "type": "uint256"
        },
        {
          "internalType": "address",
          "name": "approved",
          "type": "address"
        }
      ],
      "name": "clearApproval",
      "outputs": [],
      "stateMutability": "nonpayable",
      "type": "function"
    },
    {
      "inputs": [
        {
          "internalType": "string",
          "name": "name",
          "type": "string"
        },
        {
          "internalType": "uint256",
          "name": "quantity",
          "type": "uint256"
        },
        {
          "internalType": "address",
          "name": "sellerAddress",
          "type": "address"
        }
      ],
      "name": "generateREC",
      "outputs": [],
      "stateMutability": "payable",
      "type": "function"
    },
    {
      "inputs": [],
      "name": "getAddressList",
      "outputs": [
        {
          "internalType": "address[]",
          "name": "",
          "type": "address[]"
        }
      ],
      "stateMutability": "view",
      "type": "function"
    },
    {
      "inputs": [
        {
          "internalType": "uint256",
          "name": "id",
          "type": "uint256"
        }
      ],
      "name": "getCertificate",
      "outputs": [
        {
          "internalType": "uint256",
          "name": "",
          "type": "uint256"
        },
        {
          "internalType": "string",
          "name": "",
          "type": "string"
        },
        {
          "internalType": "uint256",
          "name": "",
          "type": "uint256"
        },
        {
          "internalType": "uint256",
          "name": "",
          "type": "uint256"
        },
        {
          "internalType": "address",
          "name": "",
          "type": "address"
        },
        {
          "internalType": "enum RenewableEnergyToken.Status",
          "name": "",
          "type": "uint8"
        }
      ],
      "stateMutability": "view",
      "type": "function"
    },
    {
      "inputs": [
        {
          "internalType": "uint256",
          "name": "id",
          "type": "uint256"
        }
      ],
      "name": "verifyREC",
      "outputs": [
        {
          "internalType": "bool",
          "name": "",
          "type": "bool"
        }
      ],
      "stateMutability": "view",
      "type": "function"
    },
    {
      "inputs": [
        {
          "internalType": "address",
          "name": "userAddress",
          "type": "address"
        }
      ],
      "name": "approveDistributor",
      "outputs": [],
      "stateMutability": "nonpayable",
      "type": "function"
    },
    {
      "inputs": [
        {
          "internalType": "address",
          "name": "userAddress",
          "type": "address"
        }
      ],
      "name": "approveUser",
      "outputs": [],
      "stateMutability": "nonpayable",
      "type": "function"
    },
    {
      "inputs": [
        {
          "internalType": "string",
          "name": "id",
          "type": "string"
        },
        {
          "internalType": "string",
          "name": "name",
          "type": "string"
        },
        {
          "internalType": "address",
          "name": "userAddress",
          "type": "address"
        }
      ],
      "name": "selfRegister",
      "outputs": [],
      "stateMutability": "nonpayable",
      "type": "function"
    },
    {
      "inputs": [],
      "name": "topupBalance",
      "outputs": [],
      "stateMutability": "payable",
      "type": "function"
    }
  ],
  "bytecode": "0x60806040523480156200001157600080fd5b506040518060400160405280601481526020017f52656e657761626c65456e65726779546f6b656e0000000000000000000000008152506040518060400160405280600381526020017f52455400000000000000000000000000000000000000000000000000000000008152508160009080519060200190620000969291906200017e565b508060019080519060200190620000af9291906200017e565b50505033600660006101000a81548173ffffffffffffffffffffffffffffffffffffffff021916908373ffffffffffffffffffffffffffffffffffffffff160217905550600c600660009054906101000a900473ffffffffffffffffffffffffffffffffffffffff169080600181540180825580915050600190039060005260206000200160009091909190916101000a81548173ffffffffffffffffffffffffffffffffffffffff021916908373ffffffffffffffffffffffffffffffffffffffff16021790555062000293565b8280546200018c906200022e565b90600052602060002090601f016020900481019282620001b05760008555620001fc565b82601f10620001cb57805160ff1916838001178555620001fc565b82800160010185558215620001fc579182015b82811115620001fb578251825591602001919060010190620001de565b5b5090506200020b91906200020f565b5090565b5b808211156200022a57600081600090555060010162000210565b5090565b600060028204905060018216806200024757607f821691505b602082108114156200025e576200025d62000264565b5b50919050565b7f4e487b7100000000000000000000000000000000000000000000000000000000600052602260045260246000fd5b61534a80620002a36000396000f3fe6080604052600436106101d85760003560e01c806370a08231116101025780639f980f9111610095578063d624fdb611610064578063d624fdb6146106e1578063daa5fe2d1461070a578063e985e9c514610733578063f2844dd514610770576101d8565b80639f980f9114610629578063a22cb46514610652578063b88d4fde1461067b578063c87b56dd146106a4576101d8565b806384acbb89116100d157806384acbb89146105695780638da5cb5b146105aa57806395084a41146105d557806395d89b41146105fe576101d8565b806370a082311461049957806371e06925146104d6578063722713f714610513578063811191301461053e576101d8565b8063278208511161017a578063467ee32111610149578063467ee321146103e7578063482aede5146103f157806351640fee1461041a5780636352211e1461045c576101d8565b8063278208511461032d5780632b34af511461036a57806334b1da131461039357806342842e0e146103be576101d8565b806306fdde03116101b657806306fdde0314610273578063081812fc1461029e578063095ea7b3146102db57806323b872dd14610304576101d8565b806301c6adc3146101dd57806301ffc9a7146101f95780630338577014610236575b600080fd5b6101f760048036038101906101f291906139b4565b61078c565b005b34801561020557600080fd5b50610220600480360381019061021b9190613b6e565b6109ff565b60405161022d9190614372565b60405180910390f35b34801561024257600080fd5b5061025d60048036038101906102589190613ca6565b610ae1565b60405161026a91906142e9565b60405180910390f35b34801561027f57600080fd5b50610288610b14565b604051610295919061438d565b60405180910390f35b3480156102aa57600080fd5b506102c560048036038101906102c09190613ca6565b610ba6565b6040516102d291906142e9565b60405180910390f35b3480156102e757600080fd5b5061030260048036038101906102fd9190613b32565b610c2b565b005b34801561031057600080fd5b5061032b60048036038101906103269190613a2c565b610dc7565b005b34801561033957600080fd5b50610354600480360381019061034f919061398b565b610e27565b604051610361919061438d565b60405180910390f35b34801561037657600080fd5b50610391600480360381019061038c9190613d0b565b6110b9565b005b34801561039f57600080fd5b506103a86111e0565b6040516103b5919061476f565b60405180910390f35b3480156103ca57600080fd5b506103e560048036038101906103e09190613a2c565b6111e6565b005b6103ef611206565b005b3480156103fd57600080fd5b506104186004803603810190610413919061398b565b6113e6565b005b34801561042657600080fd5b50610441600480360381019061043c9190613ca6565b61159c565b6040516104539695949392919061478a565b60405180910390f35b34801561046857600080fd5b50610483600480360381019061047e9190613ca6565b611845565b60405161049091906142e9565b60405180910390f35b3480156104a557600080fd5b506104c060048036038101906104bb919061398b565b6118f7565b6040516104cd919061476f565b60405180910390f35b3480156104e257600080fd5b506104fd60048036038101906104f89190613ca6565b6119af565b60405161050a9190614372565b60405180910390f35b34801561051f57600080fd5b50610528611bcc565b604051610535919061476f565b60405180910390f35b34801561054a57600080fd5b50610553611c82565b6040516105609190614350565b60405180910390f35b34801561057557600080fd5b50610590600480360381019061058b9190613ca6565b611d10565b6040516105a19594939291906147f2565b60405180910390f35b3480156105b657600080fd5b506105bf611ddb565b6040516105cc91906142e9565b60405180910390f35b3480156105e157600080fd5b506105fc60048036038101906105f79190613bc0565b611e01565b005b34801561060a57600080fd5b50610613611fc6565b604051610620919061438d565b60405180910390f35b34801561063557600080fd5b50610650600480360381019061064b9190613d0b565b612058565b005b34801561065e57600080fd5b5061067960048036038101906106749190613af6565b61217f565b005b34801561068757600080fd5b506106a2600480360381019061069d9190613a7b565b612195565b005b3480156106b057600080fd5b506106cb60048036038101906106c69190613ca6565b6121f7565b6040516106d8919061438d565b60405180910390f35b3480156106ed57600080fd5b506107086004803603810190610703919061398b565b61225f565b005b34801561071657600080fd5b50610731600480360381019061072c9190613ccf565b61244f565b005b34801561073f57600080fd5b5061075a600480360381019061075591906139f0565b61250e565b6040516107679190614372565b60405180910390f35b61078a60048036038101906107859190613c3f565b6125a2565b005b610796338261284f565b6107d5576040517f08c379a00000000000000000000000000000000000000000000000000000000081526004016107cc9061464f565b60405180910390fd5b8173ffffffffffffffffffffffffffffffffffffffff166107f582611845565b73ffffffffffffffffffffffffffffffffffffffff161461084b576040517f08c379a00000000000000000000000000000000000000000000000000000000081526004016108429061474f565b60405180910390fd5b61085d8161085883610ba6565b61244f565b600a60008373ffffffffffffffffffffffffffffffffffffffff1673ffffffffffffffffffffffffffffffffffffffff16815260200190815260200160002060008154809291906108ad90614ac6565b9190505550600a60003373ffffffffffffffffffffffffffffffffffffffff1673ffffffffffffffffffffffffffffffffffffffff168152602001908152602001600020600081548092919061090290614b53565b9190505550336009600083815260200190815260200160002060006101000a81548173ffffffffffffffffffffffffffffffffffffffff021916908373ffffffffffffffffffffffffffffffffffffffff1602179055508173ffffffffffffffffffffffffffffffffffffffff166108fc349081150290604051600060405180830381858888f1935050505015801561099f573d6000803e3d6000fd5b50803373ffffffffffffffffffffffffffffffffffffffff168373ffffffffffffffffffffffffffffffffffffffff167fddf252ad1be2c89b69c2b068fc378daa952ba7f163c4a11628f55a4df523b3ef60405160405180910390a45050565b60007f80ac58cd000000000000000000000000000000000000000000000000000000007bffffffffffffffffffffffffffffffffffffffffffffffffffffffff1916827bffffffffffffffffffffffffffffffffffffffffffffffffffffffff19161480610aca57507f5b5e139f000000000000000000000000000000000000000000000000000000007bffffffffffffffffffffffffffffffffffffffffffffffffffffffff1916827bffffffffffffffffffffffffffffffffffffffffffffffffffffffff1916145b80610ada5750610ad98261291c565b5b9050919050565b600b6020528060005260406000206000915054906101000a900473ffffffffffffffffffffffffffffffffffffffff1681565b606060008054610b2390614af0565b80601f0160208091040260200160405190810160405280929190818152602001828054610b4f90614af0565b8015610b9c5780601f10610b7157610100808354040283529160200191610b9c565b820191906000526020600020905b815481529060010190602001808311610b7f57829003601f168201915b5050505050905090565b6000610bb182612986565b610bf0576040517f08c379a0000000000000000000000000000000000000000000000000000000008152600401610be79061460f565b60405180910390fd5b600b600083815260200190815260200160002060009054906101000a900473ffffffffffffffffffffffffffffffffffffffff169050919050565b6000610c3682611845565b90508073ffffffffffffffffffffffffffffffffffffffff168373ffffffffffffffffffffffffffffffffffffffff161415610ca7576040517f08c379a0000000000000000000000000000000000000000000000000000000008152600401610c9e906143cf565b60405180910390fd5b8073ffffffffffffffffffffffffffffffffffffffff163373ffffffffffffffffffffffffffffffffffffffff1614610d15576040517f08c379a0000000000000000000000000000000000000000000000000000000008152600401610d0c9061468f565b60405180910390fd5b82600b600084815260200190815260200160002060006101000a81548173ffffffffffffffffffffffffffffffffffffffff021916908373ffffffffffffffffffffffffffffffffffffffff160217905550818373ffffffffffffffffffffffffffffffffffffffff168273ffffffffffffffffffffffffffffffffffffffff167f8c5be1e5ebec7d5bd14f71427d1e84f3dd0314c0f7b2291e5b200ac8c7c3b92560405160405180910390a4505050565b610dd8610dd26129f2565b826129fa565b610e17576040517f08c379a0000000000000000000000000000000000000000000000000000000008152600401610e0e906143af565b60405180910390fd5b610e22838383612a8f565b505050565b6060600660009054906101000a900473ffffffffffffffffffffffffffffffffffffffff1673ffffffffffffffffffffffffffffffffffffffff168273ffffffffffffffffffffffffffffffffffffffff161415610ebc576040518060400160405280600581526020017f6f776e657200000000000000000000000000000000000000000000000000000081525090506110b4565b600d60008373ffffffffffffffffffffffffffffffffffffffff1673ffffffffffffffffffffffffffffffffffffffff16815260200190815260200160002060040160009054906101000a900460ff1615610f4e576040518060400160405280600b81526020017f6469737472696275746f7200000000000000000000000000000000000000000081525090506110b4565b600d60008373ffffffffffffffffffffffffffffffffffffffff1673ffffffffffffffffffffffffffffffffffffffff16815260200190815260200160002060040160019054906101000a900460ff1615610fe0576040518060400160405280600a81526020017f726567697374657265640000000000000000000000000000000000000000000081525090506110b4565b6000600d60008473ffffffffffffffffffffffffffffffffffffffff1673ffffffffffffffffffffffffffffffffffffffff1681526020019081526020016000209050600081600001805461103490614af0565b9050111561107a576040518060400160405280601081526020017f6e6f7420796574207665726966696564000000000000000000000000000000008152509150506110b4565b6040518060400160405280600481526020017f6e6f6e65000000000000000000000000000000000000000000000000000000008152509150505b919050565b600660009054906101000a900473ffffffffffffffffffffffffffffffffffffffff1673ffffffffffffffffffffffffffffffffffffffff163373ffffffffffffffffffffffffffffffffffffffff1614806111615750600d60003373ffffffffffffffffffffffffffffffffffffffff1673ffffffffffffffffffffffffffffffffffffffff16815260200190815260200160002060040160009054906101000a900460ff165b6111a0576040517f08c379a00000000000000000000000000000000000000000000000000000000081526004016111979061470f565b60405180910390fd5b8060086000848152602001908152602001600020600301546111c2919061494f565b60086000848152602001908152602001600020600301819055505050565b60075481565b61120183838360405180602001604052806000815250612195565b505050565b600660009054906101000a900473ffffffffffffffffffffffffffffffffffffffff1673ffffffffffffffffffffffffffffffffffffffff163373ffffffffffffffffffffffffffffffffffffffff1614806112ae5750600d60003373ffffffffffffffffffffffffffffffffffffffff1673ffffffffffffffffffffffffffffffffffffffff16815260200190815260200160002060040160019054906101000a900460ff165b6112ed576040517f08c379a00000000000000000000000000000000000000000000000000000000081526004016112e4906145cf565b60405180910390fd5b6000600d60003373ffffffffffffffffffffffffffffffffffffffff1673ffffffffffffffffffffffffffffffffffffffff1681526020019081526020016000209050600081600001805461134190614af0565b90501415611384576040517f08c379a000000000000000000000000000000000000000000000000000000000815260040161137b9061448f565b60405180910390fd5b60003410156113c8576040517f08c379a00000000000000000000000000000000000000000000000000000000081526004016113bf906146af565b60405180910390fd5b348160020160008282546113dc919061494f565b9250508190555050565b600660009054906101000a900473ffffffffffffffffffffffffffffffffffffffff1673ffffffffffffffffffffffffffffffffffffffff163373ffffffffffffffffffffffffffffffffffffffff1614611476576040517f08c379a000000000000000000000000000000000000000000000000000000000815260040161146d9061472f565b60405180910390fd5b6000600d60008373ffffffffffffffffffffffffffffffffffffffff1673ffffffffffffffffffffffffffffffffffffffff168152602001908152602001600020905060008160000180546114ca90614af0565b90501161150c576040517f08c379a0000000000000000000000000000000000000000000000000000000008152600401611503906145ef565b60405180910390fd5b8060040160009054906101000a900460ff161561155e576040517f08c379a0000000000000000000000000000000000000000000000000000000008152600401611555906143ef565b60405180910390fd5b60018160040160006101000a81548160ff02191690831515021790555060018160040160016101000a81548160ff0219169083151502179055505050565b60006060600080600080600660009054906101000a900473ffffffffffffffffffffffffffffffffffffffff1673ffffffffffffffffffffffffffffffffffffffff163373ffffffffffffffffffffffffffffffffffffffff16148061164e5750600d60003373ffffffffffffffffffffffffffffffffffffffff1673ffffffffffffffffffffffffffffffffffffffff16815260200190815260200160002060040160019054906101000a900460ff165b61168d576040517f08c379a0000000000000000000000000000000000000000000000000000000008152600401611684906145cf565b60405180910390fd5b6000600860008981526020019081526020016000206040518060a0016040529081600082015481526020016001820180546116c790614af0565b80601f01602080910402602001604051908101604052809291908181526020018280546116f390614af0565b80156117405780601f1061171557610100808354040283529160200191611740565b820191906000526020600020905b81548152906001019060200180831161172357829003601f168201915b5050505050815260200160028201548152602001600382015481526020016004820160009054906101000a900460ff1660018111156117a8577f4e487b7100000000000000000000000000000000000000000000000000000000600052602160045260246000fd5b60018111156117e0577f4e487b7100000000000000000000000000000000000000000000000000000000600052602160045260246000fd5b81525050905087816020015182604001518360600151600960008d815260200190815260200160002060009054906101000a900473ffffffffffffffffffffffffffffffffffffffff1685608001519650965096509650965096505091939550919395565b6000806009600084815260200190815260200160002060009054906101000a900473ffffffffffffffffffffffffffffffffffffffff169050600073ffffffffffffffffffffffffffffffffffffffff168173ffffffffffffffffffffffffffffffffffffffff1614156118ee576040517f08c379a00000000000000000000000000000000000000000000000000000000081526004016118e59061452f565b60405180910390fd5b80915050919050565b60008073ffffffffffffffffffffffffffffffffffffffff168273ffffffffffffffffffffffffffffffffffffffff161415611968576040517f08c379a000000000000000000000000000000000000000000000000000000000815260040161195f9061458f565b60405180910390fd5b600360008373ffffffffffffffffffffffffffffffffffffffff1673ffffffffffffffffffffffffffffffffffffffff168152602001908152602001600020549050919050565b6000600660009054906101000a900473ffffffffffffffffffffffffffffffffffffffff1673ffffffffffffffffffffffffffffffffffffffff163373ffffffffffffffffffffffffffffffffffffffff161480611a595750600d60003373ffffffffffffffffffffffffffffffffffffffff1673ffffffffffffffffffffffffffffffffffffffff16815260200190815260200160002060040160019054906101000a900460ff165b611a98576040517f08c379a0000000000000000000000000000000000000000000000000000000008152600401611a8f906145cf565b60405180910390fd5b6000821015611adc576040517f08c379a0000000000000000000000000000000000000000000000000000000008152600401611ad39061456f565b60405180910390fd5b60006008600084815260200190815260200160002090506007548310611b37576040517f08c379a0000000000000000000000000000000000000000000000000000000008152600401611b2e9061440f565b60405180910390fd5b6000600d60003373ffffffffffffffffffffffffffffffffffffffff1673ffffffffffffffffffffffffffffffffffffffff16815260200190815260200160002090508160030154471015611bc1576040517f08c379a0000000000000000000000000000000000000000000000000000000008152600401611bb89061450f565b60405180910390fd5b600192505050919050565b60008073ffffffffffffffffffffffffffffffffffffffff163373ffffffffffffffffffffffffffffffffffffffff161415611c3d576040517f08c379a0000000000000000000000000000000000000000000000000000000008152600401611c34906145af565b60405180910390fd5b600a60003373ffffffffffffffffffffffffffffffffffffffff1673ffffffffffffffffffffffffffffffffffffffff16815260200190815260200160002054905090565b6060600c805480602002602001604051908101604052809291908181526020018280548015611d0657602002820191906000526020600020905b8160009054906101000a900473ffffffffffffffffffffffffffffffffffffffff1673ffffffffffffffffffffffffffffffffffffffff1681526020019060010190808311611cbc575b5050505050905090565b6008602052806000526040600020600091509050806000015490806001018054611d3990614af0565b80601f0160208091040260200160405190810160405280929190818152602001828054611d6590614af0565b8015611db25780601f10611d8757610100808354040283529160200191611db2565b820191906000526020600020905b815481529060010190602001808311611d9557829003601f168201915b5050505050908060020154908060030154908060040160009054906101000a900460ff16905085565b600660009054906101000a900473ffffffffffffffffffffffffffffffffffffffff1681565b60008351118015611e13575060008251115b611e52576040517f08c379a0000000000000000000000000000000000000000000000000000000008152600401611e49906146cf565b60405180910390fd5b6000600d60003373ffffffffffffffffffffffffffffffffffffffff1673ffffffffffffffffffffffffffffffffffffffff16815260200190815260200160002090506000816000018054611ea690614af0565b905014611ee8576040517f08c379a0000000000000000000000000000000000000000000000000000000008152600401611edf9061462f565b60405180910390fd5b83816000019080519060200190611f0092919061379a565b5082816001019080519060200190611f1992919061379a565b5047816002018190555060008160040160006101000a81548160ff02191690831515021790555060008160040160016101000a81548160ff021916908315150217905550600c829080600181540180825580915050600190039060005260206000200160009091909190916101000a81548173ffffffffffffffffffffffffffffffffffffffff021916908373ffffffffffffffffffffffffffffffffffffffff16021790555050505050565b606060018054611fd590614af0565b80601f016020809104026020016040519081016040528092919081815260200182805461200190614af0565b801561204e5780601f106120235761010080835404028352916020019161204e565b820191906000526020600020905b81548152906001019060200180831161203157829003601f168201915b5050505050905090565b600660009054906101000a900473ffffffffffffffffffffffffffffffffffffffff1673ffffffffffffffffffffffffffffffffffffffff163373ffffffffffffffffffffffffffffffffffffffff1614806121005750600d60003373ffffffffffffffffffffffffffffffffffffffff1673ffffffffffffffffffffffffffffffffffffffff16815260200190815260200160002060040160009054906101000a900460ff165b61213f576040517f08c379a00000000000000000000000000000000000000000000000000000000081526004016121369061470f565b60405180910390fd5b80600860008481526020019081526020016000206003015461216191906149a5565b60086000848152602001908152602001600020600301819055505050565b61219161218a6129f2565b8383612d89565b5050565b6121a66121a06129f2565b836129fa565b6121e5576040517f08c379a00000000000000000000000000000000000000000000000000000000081526004016121dc906143af565b60405180910390fd5b6121f184848484612ef6565b50505050565b606061220282612f52565b600061220c612f9d565b9050600081511161222c5760405180602001604052806000815250612257565b8061223684612fb4565b6040516020016122479291906142c5565b6040516020818303038152906040525b915050919050565b600660009054906101000a900473ffffffffffffffffffffffffffffffffffffffff1673ffffffffffffffffffffffffffffffffffffffff163373ffffffffffffffffffffffffffffffffffffffff1614806123075750600d60003373ffffffffffffffffffffffffffffffffffffffff1673ffffffffffffffffffffffffffffffffffffffff16815260200190815260200160002060040160009054906101000a900460ff165b612346576040517f08c379a000000000000000000000000000000000000000000000000000000000815260040161233d9061470f565b60405180910390fd5b6000600d60008373ffffffffffffffffffffffffffffffffffffffff1673ffffffffffffffffffffffffffffffffffffffff1681526020019081526020016000209050600081600001805461239a90614af0565b9050116123dc576040517f08c379a00000000000000000000000000000000000000000000000000000000081526004016123d3906145ef565b60405180910390fd5b8060040160019054906101000a900460ff161561242e576040517f08c379a0000000000000000000000000000000000000000000000000000000008152600401612425906146ef565b60405180910390fd5b60018160040160016101000a81548160ff0219169083151502179055505050565b8073ffffffffffffffffffffffffffffffffffffffff16600b600084815260200190815260200160002060009054906101000a900473ffffffffffffffffffffffffffffffffffffffff1673ffffffffffffffffffffffffffffffffffffffff16141561250a576000600b600084815260200190815260200160002060006101000a81548173ffffffffffffffffffffffffffffffffffffffff021916908373ffffffffffffffffffffffffffffffffffffffff1602179055505b5050565b6000600560008473ffffffffffffffffffffffffffffffffffffffff1673ffffffffffffffffffffffffffffffffffffffff16815260200190815260200160002060008373ffffffffffffffffffffffffffffffffffffffff1673ffffffffffffffffffffffffffffffffffffffff16815260200190815260200160002060009054906101000a900460ff16905092915050565b600660009054906101000a900473ffffffffffffffffffffffffffffffffffffffff1673ffffffffffffffffffffffffffffffffffffffff163373ffffffffffffffffffffffffffffffffffffffff16148061264a5750600d60003373ffffffffffffffffffffffffffffffffffffffff1673ffffffffffffffffffffffffffffffffffffffff16815260200190815260200160002060040160009054906101000a900460ff165b612689576040517f08c379a00000000000000000000000000000000000000000000000000000000081526004016126809061470f565b60405180910390fd5b6000835111801561269a5750600082115b80156126a65750600034115b80156126df5750600073ffffffffffffffffffffffffffffffffffffffff168173ffffffffffffffffffffffffffffffffffffffff1614155b61271e576040517f08c379a0000000000000000000000000000000000000000000000000000000008152600401612715906146cf565b60405180910390fd5b6040518060a0016040528060075481526020018481526020018381526020013481526020016000600181111561277d577f4e487b7100000000000000000000000000000000000000000000000000000000600052602160045260246000fd5b8152506008600060075481526020019081526020016000206000820151816000015560208201518160010190805190602001906127bb92919061379a565b50604082015181600201556060820151816003015560808201518160040160006101000a81548160ff02191690836001811115612821577f4e487b7100000000000000000000000000000000000000000000000000000000600052602160045260246000fd5b0217905550905050612835816007546130d8565b6001600754612844919061494f565b600781905550505050565b600061285a82612986565b612899576040517f08c379a00000000000000000000000000000000000000000000000000000000081526004016128909061454f565b60405180910390fd5b60006128a483611845565b90508073ffffffffffffffffffffffffffffffffffffffff168473ffffffffffffffffffffffffffffffffffffffff16148061291357508373ffffffffffffffffffffffffffffffffffffffff166128fb84610ba6565b73ffffffffffffffffffffffffffffffffffffffff16145b91505092915050565b60007f01ffc9a7000000000000000000000000000000000000000000000000000000007bffffffffffffffffffffffffffffffffffffffffffffffffffffffff1916827bffffffffffffffffffffffffffffffffffffffffffffffffffffffff1916149050919050565b60008073ffffffffffffffffffffffffffffffffffffffff166009600084815260200190815260200160002060009054906101000a900473ffffffffffffffffffffffffffffffffffffffff1673ffffffffffffffffffffffffffffffffffffffff1614159050919050565b600033905090565b600080612a0683613298565b90508073ffffffffffffffffffffffffffffffffffffffff168473ffffffffffffffffffffffffffffffffffffffff161480612a485750612a47818561250e565b5b80612a8657508373ffffffffffffffffffffffffffffffffffffffff16612a6e84610ba6565b73ffffffffffffffffffffffffffffffffffffffff16145b91505092915050565b8273ffffffffffffffffffffffffffffffffffffffff16612aaf82613298565b73ffffffffffffffffffffffffffffffffffffffff1614612b05576040517f08c379a0000000000000000000000000000000000000000000000000000000008152600401612afc906144af565b60405180910390fd5b600073ffffffffffffffffffffffffffffffffffffffff168273ffffffffffffffffffffffffffffffffffffffff161415612b75576040517f08c379a0000000000000000000000000000000000000000000000000000000008152600401612b6c906144cf565b60405180910390fd5b612b82838383600161331f565b8273ffffffffffffffffffffffffffffffffffffffff16612ba282613298565b73ffffffffffffffffffffffffffffffffffffffff1614612bf8576040517f08c379a0000000000000000000000000000000000000000000000000000000008152600401612bef906144af565b60405180910390fd5b6004600082815260200190815260200160002060006101000a81549073ffffffffffffffffffffffffffffffffffffffff02191690556001600360008573ffffffffffffffffffffffffffffffffffffffff1673ffffffffffffffffffffffffffffffffffffffff168152602001908152602001600020600082825403925050819055506001600360008473ffffffffffffffffffffffffffffffffffffffff1673ffffffffffffffffffffffffffffffffffffffff16815260200190815260200160002060008282540192505081905550816002600083815260200190815260200160002060006101000a81548173ffffffffffffffffffffffffffffffffffffffff021916908373ffffffffffffffffffffffffffffffffffffffff160217905550808273ffffffffffffffffffffffffffffffffffffffff168473ffffffffffffffffffffffffffffffffffffffff167fddf252ad1be2c89b69c2b068fc378daa952ba7f163c4a11628f55a4df523b3ef60405160405180910390a4612d848383836001613325565b505050565b8173ffffffffffffffffffffffffffffffffffffffff168373ffffffffffffffffffffffffffffffffffffffff161415612df8576040517f08c379a0000000000000000000000000000000000000000000000000000000008152600401612def906144ef565b60405180910390fd5b80600560008573ffffffffffffffffffffffffffffffffffffffff1673ffffffffffffffffffffffffffffffffffffffff16815260200190815260200160002060008473ffffffffffffffffffffffffffffffffffffffff1673ffffffffffffffffffffffffffffffffffffffff16815260200190815260200160002060006101000a81548160ff0219169083151502179055508173ffffffffffffffffffffffffffffffffffffffff168373ffffffffffffffffffffffffffffffffffffffff167f17307eab39ab6107e8899845ad3d59bd9653f200f220920489ca2b5937696c3183604051612ee99190614372565b60405180910390a3505050565b612f01848484612a8f565b612f0d8484848461332b565b612f4c576040517f08c379a0000000000000000000000000000000000000000000000000000000008152600401612f439061442f565b60405180910390fd5b50505050565b612f5b816134c2565b612f9a576040517f08c379a0000000000000000000000000000000000000000000000000000000008152600401612f919061466f565b60405180910390fd5b50565b606060405180602001604052806000815250905090565b606060006001612fc384613503565b01905060008167ffffffffffffffff811115613008577f4e487b7100000000000000000000000000000000000000000000000000000000600052604160045260246000fd5b6040519080825280601f01601f19166020018201604052801561303a5781602001600182028036833780820191505090505b509050600082602001820190505b6001156130cd578080600190039150507f3031323334353637383961626364656600000000000000000000000000000000600a86061a8153600a85816130b7577f4e487b7100000000000000000000000000000000000000000000000000000000600052601260045260246000fd5b04945060008514156130c8576130cd565b613048565b819350505050919050565b600073ffffffffffffffffffffffffffffffffffffffff168273ffffffffffffffffffffffffffffffffffffffff161415613148576040517f08c379a000000000000000000000000000000000000000000000000000000000815260040161313f9061446f565b60405180910390fd5b61315181612986565b15613191576040517f08c379a00000000000000000000000000000000000000000000000000000000081526004016131889061444f565b60405180910390fd5b816009600083815260200190815260200160002060006101000a81548173ffffffffffffffffffffffffffffffffffffffff021916908373ffffffffffffffffffffffffffffffffffffffff160217905550600a60008373ffffffffffffffffffffffffffffffffffffffff1673ffffffffffffffffffffffffffffffffffffffff168152602001908152602001600020600081548092919061323390614b53565b9190505550808273ffffffffffffffffffffffffffffffffffffffff16600073ffffffffffffffffffffffffffffffffffffffff167fddf252ad1be2c89b69c2b068fc378daa952ba7f163c4a11628f55a4df523b3ef60405160405180910390a45050565b6000806132a48361373a565b9050600073ffffffffffffffffffffffffffffffffffffffff168173ffffffffffffffffffffffffffffffffffffffff161415613316576040517f08c379a000000000000000000000000000000000000000000000000000000000815260040161330d9061466f565b60405180910390fd5b80915050919050565b50505050565b50505050565b600061334c8473ffffffffffffffffffffffffffffffffffffffff16613777565b156134b5578373ffffffffffffffffffffffffffffffffffffffff1663150b7a026133756129f2565b8786866040518563ffffffff1660e01b81526004016133979493929190614304565b602060405180830381600087803b1580156133b157600080fd5b505af19250505080156133e257506040513d601f19601f820116820180604052508101906133df9190613b97565b60015b613465573d8060008114613412576040519150601f19603f3d011682016040523d82523d6000602084013e613417565b606091505b5060008151141561345d576040517f08c379a00000000000000000000000000000000000000000000000000000000081526004016134549061442f565b60405180910390fd5b805181602001fd5b63150b7a0260e01b7bffffffffffffffffffffffffffffffffffffffffffffffffffffffff1916817bffffffffffffffffffffffffffffffffffffffffffffffffffffffff1916149150506134ba565b600190505b949350505050565b60008073ffffffffffffffffffffffffffffffffffffffff166134e48361373a565b73ffffffffffffffffffffffffffffffffffffffff1614159050919050565b600080600090507a184f03e93ff9f4daa797ed6e38ed64bf6a1f0100000000000000008310613587577a184f03e93ff9f4daa797ed6e38ed64bf6a1f010000000000000000838161357d577f4e487b7100000000000000000000000000000000000000000000000000000000600052601260045260246000fd5b0492506040810190505b6d04ee2d6d415b85acef810000000083106135ea576d04ee2d6d415b85acef810000000083816135e0577f4e487b7100000000000000000000000000000000000000000000000000000000600052601260045260246000fd5b0492506020810190505b662386f26fc10000831061363f57662386f26fc100008381613635577f4e487b7100000000000000000000000000000000000000000000000000000000600052601260045260246000fd5b0492506010810190505b6305f5e100831061368e576305f5e1008381613684577f4e487b7100000000000000000000000000000000000000000000000000000000600052601260045260246000fd5b0492506008810190505b61271083106136d95761271083816136cf577f4e487b7100000000000000000000000000000000000000000000000000000000600052601260045260246000fd5b0492506004810190505b606483106137225760648381613718577f4e487b7100000000000000000000000000000000000000000000000000000000600052601260045260246000fd5b0492506002810190505b600a8310613731576001810190505b80915050919050565b60006002600083815260200190815260200160002060009054906101000a900473ffffffffffffffffffffffffffffffffffffffff169050919050565b6000808273ffffffffffffffffffffffffffffffffffffffff163b119050919050565b8280546137a690614af0565b90600052602060002090601f0160209004810192826137c8576000855561380f565b82601f106137e157805160ff191683800117855561380f565b8280016001018555821561380f579182015b8281111561380e5782518255916020019190600101906137f3565b5b50905061381c9190613820565b5090565b5b80821115613839576000816000905550600101613821565b5090565b600061385061384b84614871565b61484c565b90508281526020810184848401111561386857600080fd5b613873848285614a84565b509392505050565b600061388e613889846148a2565b61484c565b9050828152602081018484840111156138a657600080fd5b6138b1848285614a84565b509392505050565b6000813590506138c8816152a1565b92915050565b6000813590506138dd816152b8565b92915050565b6000813590506138f2816152cf565b92915050565b600081359050613907816152e6565b92915050565b60008151905061391c816152e6565b92915050565b600082601f83011261393357600080fd5b813561394384826020860161383d565b91505092915050565b600082601f83011261395d57600080fd5b813561396d84826020860161387b565b91505092915050565b600081359050613985816152fd565b92915050565b60006020828403121561399d57600080fd5b60006139ab848285016138b9565b91505092915050565b600080604083850312156139c757600080fd5b60006139d5858286016138ce565b92505060206139e685828601613976565b9150509250929050565b60008060408385031215613a0357600080fd5b6000613a11858286016138b9565b9250506020613a22858286016138b9565b9150509250929050565b600080600060608486031215613a4157600080fd5b6000613a4f868287016138b9565b9350506020613a60868287016138b9565b9250506040613a7186828701613976565b9150509250925092565b60008060008060808587031215613a9157600080fd5b6000613a9f878288016138b9565b9450506020613ab0878288016138b9565b9350506040613ac187828801613976565b925050606085013567ffffffffffffffff811115613ade57600080fd5b613aea87828801613922565b91505092959194509250565b60008060408385031215613b0957600080fd5b6000613b17858286016138b9565b9250506020613b28858286016138e3565b9150509250929050565b60008060408385031215613b4557600080fd5b6000613b53858286016138b9565b9250506020613b6485828601613976565b9150509250929050565b600060208284031215613b8057600080fd5b6000613b8e848285016138f8565b91505092915050565b600060208284031215613ba957600080fd5b6000613bb78482850161390d565b91505092915050565b600080600060608486031215613bd557600080fd5b600084013567ffffffffffffffff811115613bef57600080fd5b613bfb8682870161394c565b935050602084013567ffffffffffffffff811115613c1857600080fd5b613c248682870161394c565b9250506040613c35868287016138b9565b9150509250925092565b600080600060608486031215613c5457600080fd5b600084013567ffffffffffffffff811115613c6e57600080fd5b613c7a8682870161394c565b9350506020613c8b86828701613976565b9250506040613c9c868287016138b9565b9150509250925092565b600060208284031215613cb857600080fd5b6000613cc684828501613976565b91505092915050565b60008060408385031215613ce257600080fd5b6000613cf085828601613976565b9250506020613d01858286016138b9565b9150509250929050565b60008060408385031215613d1e57600080fd5b6000613d2c85828601613976565b9250506020613d3d85828601613976565b9150509250929050565b6000613d538383613d5f565b60208301905092915050565b613d68816149d9565b82525050565b613d77816149d9565b82525050565b6000613d88826148e3565b613d928185614911565b9350613d9d836148d3565b8060005b83811015613dce578151613db58882613d47565b9750613dc083614904565b925050600181019050613da1565b5085935050505092915050565b613de4816149fd565b82525050565b6000613df5826148ee565b613dff8185614922565b9350613e0f818560208601614a93565b613e1881614c58565b840191505092915050565b613e2c81614a72565b82525050565b6000613e3d826148f9565b613e478185614933565b9350613e57818560208601614a93565b613e6081614c58565b840191505092915050565b6000613e76826148f9565b613e808185614944565b9350613e90818560208601614a93565b80840191505092915050565b6000613ea9602d83614933565b9150613eb482614c69565b604082019050919050565b6000613ecc601483614933565b9150613ed782614cb8565b602082019050919050565b6000613eef601b83614933565b9150613efa82614ce1565b602082019050919050565b6000613f12600d83614933565b9150613f1d82614d0a565b602082019050919050565b6000613f35603283614933565b9150613f4082614d33565b604082019050919050565b6000613f58600d83614933565b9150613f6382614d82565b602082019050919050565b6000613f7b601383614933565b9150613f8682614dab565b602082019050919050565b6000613f9e601383614933565b9150613fa982614dd4565b602082019050919050565b6000613fc1602583614933565b9150613fcc82614dfd565b604082019050919050565b6000613fe4602483614933565b9150613fef82614e4c565b604082019050919050565b6000614007601983614933565b915061401282614e9b565b602082019050919050565b600061402a601483614933565b915061403582614ec4565b602082019050919050565b600061404d600d83614933565b915061405882614eed565b602082019050919050565b6000614070602c83614933565b915061407b82614f16565b604082019050919050565b6000614093601783614933565b915061409e82614f65565b602082019050919050565b60006140b6602983614933565b91506140c182614f8e565b604082019050919050565b60006140d9602a83614933565b91506140e482614fdd565b604082019050919050565b60006140fc602383614933565b91506141078261502c565b604082019050919050565b600061411f600e83614933565b915061412a8261507b565b602082019050919050565b6000614142602c83614933565b915061414d826150a4565b604082019050919050565b6000614165601783614933565b9150614170826150f3565b602082019050919050565b6000614188601283614933565b91506141938261511c565b602082019050919050565b60006141ab601883614933565b91506141b682615145565b602082019050919050565b60006141ce601083614933565b91506141d98261516e565b602082019050919050565b60006141f1600f83614933565b91506141fc82615197565b602082019050919050565b6000614214601883614933565b915061421f826151c0565b602082019050919050565b6000614237601a83614933565b9150614242826151e9565b602082019050919050565b600061425a601e83614933565b915061426582615212565b602082019050919050565b600061427d601883614933565b91506142888261523b565b602082019050919050565b60006142a0601083614933565b91506142ab82615264565b602082019050919050565b6142bf81614a68565b82525050565b60006142d18285613e6b565b91506142dd8284613e6b565b91508190509392505050565b60006020820190506142fe6000830184613d6e565b92915050565b60006080820190506143196000830187613d6e565b6143266020830186613d6e565b61433360408301856142b6565b81810360608301526143458184613dea565b905095945050505050565b6000602082019050818103600083015261436a8184613d7d565b905092915050565b60006020820190506143876000830184613ddb565b92915050565b600060208201905081810360008301526143a78184613e32565b905092915050565b600060208201905081810360008301526143c881613e9c565b9050919050565b600060208201905081810360008301526143e881613ebf565b9050919050565b6000602082019050818103600083015261440881613ee2565b9050919050565b6000602082019050818103600083015261442881613f05565b9050919050565b6000602082019050818103600083015261444881613f28565b9050919050565b6000602082019050818103600083015261446881613f4b565b9050919050565b6000602082019050818103600083015261448881613f6e565b9050919050565b600060208201905081810360008301526144a881613f91565b9050919050565b600060208201905081810360008301526144c881613fb4565b9050919050565b600060208201905081810360008301526144e881613fd7565b9050919050565b6000602082019050818103600083015261450881613ffa565b9050919050565b600060208201905081810360008301526145288161401d565b9050919050565b6000602082019050818103600083015261454881614040565b9050919050565b6000602082019050818103600083015261456881614063565b9050919050565b6000602082019050818103600083015261458881614086565b9050919050565b600060208201905081810360008301526145a8816140a9565b9050919050565b600060208201905081810360008301526145c8816140cc565b9050919050565b600060208201905081810360008301526145e8816140ef565b9050919050565b6000602082019050818103600083015261460881614112565b9050919050565b6000602082019050818103600083015261462881614135565b9050919050565b6000602082019050818103600083015261464881614158565b9050919050565b600060208201905081810360008301526146688161417b565b9050919050565b600060208201905081810360008301526146888161419e565b9050919050565b600060208201905081810360008301526146a8816141c1565b9050919050565b600060208201905081810360008301526146c8816141e4565b9050919050565b600060208201905081810360008301526146e881614207565b9050919050565b600060208201905081810360008301526147088161422a565b9050919050565b600060208201905081810360008301526147288161424d565b9050919050565b6000602082019050818103600083015261474881614270565b9050919050565b6000602082019050818103600083015261476881614293565b9050919050565b600060208201905061478460008301846142b6565b92915050565b600060c08201905061479f60008301896142b6565b81810360208301526147b18188613e32565b90506147c060408301876142b6565b6147cd60608301866142b6565b6147da6080830185613d6e565b6147e760a0830184613e23565b979650505050505050565b600060a08201905061480760008301886142b6565b81810360208301526148198187613e32565b905061482860408301866142b6565b61483560608301856142b6565b6148426080830184613e23565b9695505050505050565b6000614856614867565b90506148628282614b22565b919050565b6000604051905090565b600067ffffffffffffffff82111561488c5761488b614c29565b5b61489582614c58565b9050602081019050919050565b600067ffffffffffffffff8211156148bd576148bc614c29565b5b6148c682614c58565b9050602081019050919050565b6000819050602082019050919050565b600081519050919050565b600081519050919050565b600081519050919050565b6000602082019050919050565b600082825260208201905092915050565b600082825260208201905092915050565b600082825260208201905092915050565b600081905092915050565b600061495a82614a68565b915061496583614a68565b9250827fffffffffffffffffffffffffffffffffffffffffffffffffffffffffffffffff0382111561499a57614999614b9c565b5b828201905092915050565b60006149b082614a68565b91506149bb83614a68565b9250828210156149ce576149cd614b9c565b5b828203905092915050565b60006149e482614a48565b9050919050565b60006149f682614a48565b9050919050565b60008115159050919050565b60007fffffffff0000000000000000000000000000000000000000000000000000000082169050919050565b6000819050614a438261528d565b919050565b600073ffffffffffffffffffffffffffffffffffffffff82169050919050565b6000819050919050565b6000614a7d82614a35565b9050919050565b82818337600083830152505050565b60005b83811015614ab1578082015181840152602081019050614a96565b83811115614ac0576000848401525b50505050565b6000614ad182614a68565b91506000821415614ae557614ae4614b9c565b5b600182039050919050565b60006002820490506001821680614b0857607f821691505b60208210811415614b1c57614b1b614bfa565b5b50919050565b614b2b82614c58565b810181811067ffffffffffffffff82111715614b4a57614b49614c29565b5b80604052505050565b6000614b5e82614a68565b91507fffffffffffffffffffffffffffffffffffffffffffffffffffffffffffffffff821415614b9157614b90614b9c565b5b600182019050919050565b7f4e487b7100000000000000000000000000000000000000000000000000000000600052601160045260246000fd5b7f4e487b7100000000000000000000000000000000000000000000000000000000600052602160045260246000fd5b7f4e487b7100000000000000000000000000000000000000000000000000000000600052602260045260246000fd5b7f4e487b7100000000000000000000000000000000000000000000000000000000600052604160045260246000fd5b6000601f19601f8301169050919050565b7f4552433732313a2063616c6c6572206973206e6f7420746f6b656e206f776e6560008201527f72206f7220617070726f76656400000000000000000000000000000000000000602082015250565b7f43757272656e744f776e6572417070726f76616c000000000000000000000000600082015250565b7f5573657220697320616c7265616479204469737472696275746f720000000000600082015250565b7f524543206e6f7420666f756e6400000000000000000000000000000000000000600082015250565b7f4552433732313a207472616e7366657220746f206e6f6e20455243373231526560008201527f63656976657220696d706c656d656e7465720000000000000000000000000000602082015250565b7f416c72656164794d696e74656400000000000000000000000000000000000000600082015250565b7f5a65726f416464726573734d696e6974696e6700000000000000000000000000600082015250565b7f55736572206e6f74207265676973746572656400000000000000000000000000600082015250565b7f4552433732313a207472616e736665722066726f6d20696e636f72726563742060008201527f6f776e6572000000000000000000000000000000000000000000000000000000602082015250565b7f4552433732313a207472616e7366657220746f20746865207a65726f2061646460008201527f7265737300000000000000000000000000000000000000000000000000000000602082015250565b7f4552433732313a20617070726f766520746f2063616c6c657200000000000000600082015250565b7f496e73756666696369656e742062616c616e6365000000000000000000000000600082015250565b7f4e6f417373657445786973747300000000000000000000000000000000000000600082015250565b7f4552433732313a206f70657261746f7220717565727920666f72206e6f6e657860008201527f697374656e7420746f6b656e0000000000000000000000000000000000000000602082015250565b7f496e76616c696420696e70757420706172616d65746572000000000000000000600082015250565b7f4552433732313a2061646472657373207a65726f206973206e6f74206120766160008201527f6c6964206f776e65720000000000000000000000000000000000000000000000602082015250565b7f4552433732313a2062616c616e636520717565727920666f7220746865207a6560008201527f726f206164647265737300000000000000000000000000000000000000000000602082015250565b7f4f6e6c7920726567697374657265642075736572732063616e2063616c6c207460008201527f6869730000000000000000000000000000000000000000000000000000000000602082015250565b7f55736572206e6f7420666f756e64000000000000000000000000000000000000600082015250565b7f4552433732313a20617070726f76656420717565727920666f72206e6f6e657860008201527f697374656e7420746f6b656e0000000000000000000000000000000000000000602082015250565b7f5573657220616c72656164792072656769737465726564000000000000000000600082015250565b7f4e6f74416e417070726f7665644f776e65720000000000000000000000000000600082015250565b7f4552433732313a20696e76616c696420746f6b656e2049440000000000000000600082015250565b7f4e6f7454686541737365744f776e657200000000000000000000000000000000600082015250565b7f496e76616c69642062616c616e63650000000000000000000000000000000000600082015250565b7f496e76616c696420696e70757420706172616d65746572730000000000000000600082015250565b7f5573657220697320616c72656164792052656769737465726564000000000000600082015250565b7f4f6e6c79206469737472696275746f722063616e2063616c6c20746869730000600082015250565b7f4f6e6c79206f776e65722063616e2063616c6c20746869730000000000000000600082015250565b7f4e6f7454686561737365744f776e657200000000000000000000000000000000600082015250565b6002811061529e5761529d614bcb565b5b50565b6152aa816149d9565b81146152b557600080fd5b50565b6152c1816149eb565b81146152cc57600080fd5b50565b6152d8816149fd565b81146152e357600080fd5b50565b6152ef81614a09565b81146152fa57600080fd5b50565b61530681614a68565b811461531157600080fd5b5056fea264697066735822122059496a5fe67df16a1dbba52a103a59ff723db44befefa17a336903ac702c99ee64736f6c63430008010033",
  "immutableReferences": {},
  "source": "// SPDX-License-Identifier: UNLICENSED\npragma solidity ^0.8.1;\n\nimport \"@openzeppelin/contracts/token/ERC721/ERC721.sol\";\n\ncontract RenewableEnergyToken is ERC721 {\n    \n    address public owner;\n    \n    struct User {\n        string id;\n        string name;\n        uint balance;\n        REC[] certificates;\n        bool isDistributor;\n        bool isRegistered;\n    }\n    \n    struct REC {\n        uint id;\n        string name;\n        uint quantity;\n        uint256 price;\n        Status status;\n    }\n\n    uint public recCount;\n    mapping(uint => REC) public recs;\n    mapping(uint => address) private recOwner;\n    mapping (address => uint256) private ownedAssetsCount;    \n    mapping (uint256 => address) public assetApprovals;\n\n    address[]  addressList;\n    \n    enum Status {Available, Sold}\n    \n    mapping(address => User) users;\n\n    //Events\n    //event Transfer(address indexed from, address indexed to, uint256 indexed tokenId);\n    //event Approval(address indexed owner, address indexed approved, uint256 indexed tokenId);\n\n    constructor() ERC721(\"RenewableEnergyToken\", \"RET\") {\n        owner = msg.sender;\n\t\taddressList.push(owner);\n    }\n\n    modifier onlyOwner() {\n        require(msg.sender == owner, \"Only owner can call this\");\n        _;\n    }\n\n    modifier onlyRegistered() {\n        require(msg.sender == owner || users[msg.sender].isRegistered, \"Only registered users can call this\");\n        _;\n    }\n\n    modifier onlyDistributor() {\n        require(msg.sender == owner || users[msg.sender].isDistributor, \"Only distributor can call this\");\n        _;\n    }\n\n\tfunction getUserRole(address user) public view returns (string memory) {\n\t\tif (user == owner) {\n\t\t\treturn \"owner\";\n\t\t} else if (users[user].isDistributor) {\n\t\t\treturn \"distributor\";\n\t\t} else if (users[user].isRegistered) {\n\t\t\treturn \"registered\";\n\t\t} else {\n\t\t\t User storage userObj = users[user];\n\t\t\tif (bytes(userObj.id).length > 0)\n\t\t\t\treturn \"not yet verified\";\n\t\t\telse \n\t\t\t\treturn \"none\";\n\t\t\t}\n\t}\n\n    //ERC721 methods\n\n\tfunction balanceOf() public view returns (uint256)  {\n        require(msg.sender != address(0), \"ERC721: balance query for the zero address\");\n\n        return ownedAssetsCount[msg.sender];\n    }\n    \n     function ownerOf(uint256 assetId) public view override returns (address) {\n         address owner = recOwner[assetId];\n         require(owner != address(0), \"NoAssetExists\");\n         return owner;\n     }\n    \n\tfunction appreciate(uint256 assetId,uint256 value) public onlyDistributor{\n        recs[assetId].price = recs[assetId].price + value;\n    }\n    \n\tfunction depreciate(uint256 assetId,uint256 value) public onlyDistributor{\n        recs[assetId].price = recs[assetId].price - value;\n    }\n    \n    function transferFrom(address payable from, uint256 recId) public payable{\n        require(isApprovedOrOwner(msg.sender, recId), \"NotAnApprovedOwner\");\n        require(ownerOf(recId) == from, \"NotTheassetOwner\");\n        clearApproval(recId,getApproved(recId));\n        ownedAssetsCount[from]--;\n        ownedAssetsCount[msg.sender]++;\n        recOwner[recId] = msg.sender;\n\t\tfrom.transfer(msg.value);\n        emit Transfer(from, msg.sender, recId);\n    }\n\n    function approve(address to,uint256 assetId) public override {\n        address owner = ownerOf(assetId);\n        require(to != owner, \"CurrentOwnerApproval\");\n        require(msg.sender == owner,\"NotTheAssetOwner\");\n        assetApprovals[assetId] = to;\n        emit Approval(owner, to, assetId);\n    }\n\n    function getApproved(uint256 assetId) public view override returns (address) {\n        require(exists(assetId), \"ERC721: approved query for nonexistent token\");\n        return assetApprovals[assetId];\n    }\n    \n\tfunction clearApproval(uint256 assetId,address approved) public {\n        if (assetApprovals[assetId]==approved){\n            assetApprovals[assetId] = address(0);\n        }\n    }\n\n    // Function used internally by other methods\n    function mint(address to, uint256 recId) internal {\n        require(to != address(0), \"ZeroAddressMiniting\");\n        require(!exists(recId), \"AlreadyMinted\");\n        recOwner[recId] = to;\n        ownedAssetsCount[to]++;\n        emit Transfer(address(0), to, recId);\n    }\n\n    function exists(uint256 assetId) internal view returns (bool) {\n        return recOwner[assetId] != address(0);\n    }\n\n    function isApprovedOrOwner(address spender, uint256 assetId) internal view returns (bool) {\n        require(exists(assetId), \"ERC721: operator query for nonexistent token\");\n        address owner = ownerOf(assetId);\n        return (spender == owner || getApproved(assetId) == spender);\n    }\n\n    //REC functions\n    function generateREC(string memory name, uint quantity, address sellerAddress) public onlyDistributor payable {\n        require(bytes(name).length > 0 && quantity > 0 && msg.value > 0 && sellerAddress!=address(0), \"Invalid input parameters\");\n\n        recs[recCount] =  REC(recCount, name, quantity, msg.value, Status.Available);\n        \n        mint(sellerAddress,recCount);\n        recCount = recCount+1;\n    }\n\n\tfunction getAddressList() public view returns (address[] memory) {\n        return addressList;\n    }\n\n\tfunction getCertificate(uint id) public view onlyRegistered returns (uint, string memory, uint, uint,address, Status) {\n        REC memory rec = recs[id];\n        return (id, rec.name, rec.quantity, rec.price, recOwner[id], rec.status);\n    }\n\n    function verifyREC(uint id) public view onlyRegistered returns (bool) {\n        require(id>=0, \"Invalid input parameter\");\n\n        REC storage rec = recs[id];\n        require(id<recCount, \"REC not found\");\n\n        User storage user = users[msg.sender];\n        require(address(this).balance >= rec.price, \"Insufficient balance\");\n        return true;\n    }\n\n    function approveDistributor(address userAddress) public onlyOwner {\n        User storage user = users[userAddress];\n        require(bytes(user.id).length > 0, \"User not found\");\n        require(!user.isDistributor, \"User is already Distributor\");\n\n        user.isDistributor = true;\n        user.isRegistered = true;\n    }\n\n    function approveUser(address userAddress) public onlyDistributor {\n        User storage user = users[userAddress];\n        require(bytes(user.id).length > 0, \"User not found\");\n        require(!user.isRegistered, \"User is already Registered\");\n\n        user.isRegistered = true;\n    }\n\n    function selfRegister(string memory id, string memory name, address userAddress) public {\n        require(bytes(id).length > 0 && bytes(name).length > 0, \"Invalid input parameters\");\n\n        User storage user = users[msg.sender];\n        require(bytes(user.id).length == 0, \"User already registered\");\n\n        user.id = id;\n        user.name = name;\n        user.balance = address(this).balance; \n        user.isDistributor = false;\n\t\tuser.isRegistered = false;\n        addressList.push((userAddress));\n    }\n\n    function topupBalance() public onlyRegistered payable {\n        User storage user = users[msg.sender];\n        require(bytes(user.id).length != 0, \"User not registered\");\n        require(msg.value >= 0, \"Invalid balance\");\n\n        user.balance += msg.value;\n    }\n}",
  "sourcePath": "/home/lisaa/Downloads/DCP/Renewable-Energy-Trading-with-Blockchain-and-NFTs/renewableenergytoken-contract/contracts/RenewableEnergyToken.sol",
  "compiler": {
    "name": "solc",
    "version": "0.8.1+commit.df193b15.Emscripten.clang"
  },
  "schemaVersion": "3.4.16",
  "updatedAt": "2024-04-28T09:36:23.031Z",
  "devdoc": {
    "kind": "dev",
    "methods": {
      "balanceOf(address)": {
        "details": "See {IERC721-balanceOf}."
      },
      "isApprovedForAll(address,address)": {
        "details": "See {IERC721-isApprovedForAll}."
      },
      "name()": {
        "details": "See {IERC721Metadata-name}."
      },
      "safeTransferFrom(address,address,uint256)": {
        "details": "See {IERC721-safeTransferFrom}."
      },
      "safeTransferFrom(address,address,uint256,bytes)": {
        "details": "See {IERC721-safeTransferFrom}."
      },
      "setApprovalForAll(address,bool)": {
        "details": "See {IERC721-setApprovalForAll}."
      },
      "supportsInterface(bytes4)": {
        "details": "See {IERC165-supportsInterface}."
      },
      "symbol()": {
        "details": "See {IERC721Metadata-symbol}."
      },
      "tokenURI(uint256)": {
        "details": "See {IERC721Metadata-tokenURI}."
      },
      "transferFrom(address,address,uint256)": {
        "details": "See {IERC721-transferFrom}."
      }
    },
    "version": 1
  },
  "userdoc": {
    "kind": "user",
    "methods": {},
    "version": 1
  }
}